{
  "_format": "hh3-artifact-1",
  "contractName": "MultiTokenBountyVault",
  "sourceName": "src/MultiTokenBountyVault.sol",
  "abi": [
    {
      "inputs": [
        {
          "internalType": "address",
          "name": "_operator",
          "type": "address"
        },
        {
          "internalType": "address",
          "name": "_initialOwner",
          "type": "address"
        }
      ],
      "stateMutability": "nonpayable",
      "type": "constructor"
    },
    {
      "inputs": [
        {
          "internalType": "address",
          "name": "owner",
          "type": "address"
        }
      ],
      "name": "OwnableInvalidOwner",
      "type": "error"
    },
    {
      "inputs": [
        {
          "internalType": "address",
          "name": "account",
          "type": "address"
        }
      ],
      "name": "OwnableUnauthorizedAccount",
      "type": "error"
    },
    {
      "inputs": [],
      "name": "ReentrancyGuardReentrantCall",
      "type": "error"
    },
    {
      "anonymous": false,
      "inputs": [
        {
          "indexed": true,
          "internalType": "uint256",
          "name": "bountyId",
          "type": "uint256"
        },
        {
          "indexed": false,
          "internalType": "enum MultiTokenBountyVault.TokenType",
          "name": "tokenType",
          "type": "uint8"
        },
        {
          "indexed": false,
          "internalType": "address",
          "name": "tokenAddress",
          "type": "address"
        },
        {
          "indexed": true,
          "internalType": "address",
          "name": "depositor",
          "type": "address"
        },
        {
          "indexed": false,
          "internalType": "uint256",
          "name": "amount",
          "type": "uint256"
        },
        {
          "indexed": false,
          "internalType": "uint8",
          "name": "solverShare",
          "type": "uint8"
        },
        {
          "indexed": false,
          "internalType": "uint8",
          "name": "operatorShare",
          "type": "uint8"
        }
      ],
      "name": "Deposited",
      "type": "event"
    },
    {
      "anonymous": false,
      "inputs": [
        {
          "indexed": true,
          "internalType": "uint256",
          "name": "bountyId",
          "type": "uint256"
        },
        {
          "indexed": true,
          "internalType": "address",
          "name": "solver",
          "type": "address"
        },
        {
          "indexed": false,
          "internalType": "uint256",
          "name": "solverAmount",
          "type": "uint256"
        },
        {
          "indexed": false,
          "internalType": "uint256",
          "name": "operatorAmount",
          "type": "uint256"
        }
      ],
      "name": "Distributed",
      "type": "event"
    },
    {
      "anonymous": false,
      "inputs": [
        {
          "indexed": true,
          "internalType": "address",
          "name": "previousOwner",
          "type": "address"
        },
        {
          "indexed": true,
          "internalType": "address",
          "name": "newOwner",
          "type": "address"
        }
      ],
      "name": "OwnershipTransferred",
      "type": "event"
    },
    {
      "inputs": [
        {
          "internalType": "uint256",
          "name": "",
          "type": "uint256"
        }
      ],
      "name": "bounties",
      "outputs": [
        {
          "internalType": "enum MultiTokenBountyVault.TokenType",
          "name": "tokenType",
          "type": "uint8"
        },
        {
          "internalType": "address",
          "name": "tokenAddress",
          "type": "address"
        },
        {
          "internalType": "uint256",
          "name": "totalAmount",
          "type": "uint256"
        },
        {
          "internalType": "address",
          "name": "depositor",
          "type": "address"
        },
        {
          "internalType": "address",
          "name": "solver",
          "type": "address"
        },
        {
          "internalType": "uint8",
          "name": "solverShare",
          "type": "uint8"
        },
        {
          "internalType": "uint8",
          "name": "operatorShare",
          "type": "uint8"
        },
        {
          "internalType": "bool",
          "name": "distributed",
          "type": "bool"
        }
      ],
      "stateMutability": "view",
      "type": "function"
    },
    {
      "inputs": [
        {
          "internalType": "uint256",
          "name": "bountyId",
          "type": "uint256"
        },
        {
          "internalType": "uint8",
          "name": "solverShare",
          "type": "uint8"
        },
        {
          "internalType": "uint8",
          "name": "operatorShare",
          "type": "uint8"
        }
      ],
      "name": "depositETH",
      "outputs": [],
      "stateMutability": "payable",
      "type": "function"
    },
    {
      "inputs": [
        {
          "internalType": "uint256",
          "name": "bountyId",
          "type": "uint256"
        },
        {
          "internalType": "address",
          "name": "token",
          "type": "address"
        },
        {
          "internalType": "uint256",
          "name": "amount",
          "type": "uint256"
        },
        {
          "internalType": "uint8",
          "name": "solverShare",
          "type": "uint8"
        },
        {
          "internalType": "uint8",
          "name": "operatorShare",
          "type": "uint8"
        }
      ],
      "name": "depositToken",
      "outputs": [],
      "stateMutability": "nonpayable",
      "type": "function"
    },
    {
      "inputs": [
        {
          "internalType": "uint256",
          "name": "bountyId",
          "type": "uint256"
        },
        {
          "internalType": "address",
          "name": "solver",
          "type": "address"
        }
      ],
      "name": "distribute",
      "outputs": [],
      "stateMutability": "nonpayable",
      "type": "function"
    },
    {
      "inputs": [],
      "name": "operator",
      "outputs": [
        {
          "internalType": "address",
          "name": "",
          "type": "address"
        }
      ],
      "stateMutability": "view",
      "type": "function"
    },
    {
      "inputs": [],
      "name": "owner",
      "outputs": [
        {
          "internalType": "address",
          "name": "",
          "type": "address"
        }
      ],
      "stateMutability": "view",
      "type": "function"
    },
    {
      "inputs": [],
      "name": "renounceOwnership",
      "outputs": [],
      "stateMutability": "nonpayable",
      "type": "function"
    },
    {
      "inputs": [
        {
          "internalType": "address",
          "name": "newOperator",
          "type": "address"
        }
      ],
      "name": "setOperator",
      "outputs": [],
      "stateMutability": "nonpayable",
      "type": "function"
    },
    {
      "inputs": [
        {
          "internalType": "address",
          "name": "newOwner",
          "type": "address"
        }
      ],
      "name": "transferOwnership",
      "outputs": [],
      "stateMutability": "nonpayable",
      "type": "function"
    }
  ],
  "bytecode": "0x608060405234801561000f575f5ffd5b506040516111a93803806111a983398101604081905261002e91610146565b60015f55806001600160a01b03811661006157604051631e4fbdf760e01b81525f60048201526024015b60405180910390fd5b61006a816100da565b506001600160a01b0382166100b45760405162461bcd60e51b815260206004820152601060248201526f24b73b30b634b21037b832b930ba37b960811b6044820152606401610058565b50600380546001600160a01b0319166001600160a01b0392909216919091179055610177565b600180546001600160a01b038381166001600160a01b0319831681179093556040519116919082907f8be0079c531659141344cd1fd0a4f28419497f9722a3daafe3b4186f6b6457e0905f90a35050565b80516001600160a01b0381168114610141575f5ffd5b919050565b5f5f60408385031215610157575f5ffd5b6101608361012b565b915061016e6020840161012b565b90509250929050565b611025806101845f395ff3fe608060405260043610610084575f3560e01c80638da5cb5b116100575780638da5cb5b1461010c578063b3ab15fb14610129578063dc2f874414610148578063e1fa8b02146101d6578063f2fde38b146101f5575f5ffd5b80631a03ed4e14610088578063570ca7351461009d5780635b0dd028146100d9578063715018a6146100f8575b5f5ffd5b61009b610096366004610d98565b610214565b005b3480156100a8575f5ffd5b506003546100bc906001600160a01b031681565b6040516001600160a01b0390911681526020015b60405180910390f35b3480156100e4575f5ffd5b5061009b6100f3366004610de7565b610472565b348015610103575f5ffd5b5061009b6107e7565b348015610117575f5ffd5b506001546001600160a01b03166100bc565b348015610134575f5ffd5b5061009b610143366004610e3a565b6107fa565b348015610153575f5ffd5b506101c2610162366004610e5a565b600260208190525f9182526040909120805460018201549282015460039092015460ff808316946101009093046001600160a01b039081169481169290811691600160a01b8204811691600160a81b8104821691600160b01b9091041688565b6040516100d0989796959493929190610ea5565b3480156101e1575f5ffd5b5061009b6101f0366004610f00565b61086d565b348015610200575f5ffd5b5061009b61020f366004610e3a565b610ca0565b61021c610cdd565b5f341161025e5760405162461bcd60e51b815260206004820152600b60248201526a139bc8115512081cd95b9d60aa1b60448201526064015b60405180910390fd5b5f83815260026020526040902060010154156102b05760405162461bcd60e51b8152602060048201526011602482015270105b1c9958591e4819195c1bdcda5d1959607a1b6044820152606401610255565b6102ba8183610f3e565b60ff166064146102fc5760405162461bcd60e51b815260206004820152600d60248201526c496e76616c696420726174696f60981b6044820152606401610255565b60408051610100810182525f808252602080830182905234838501523360608401526080830182905260ff86811660a0850152851660c084015260e08301829052868252600290529190912081518154829060ff19166001838181111561036557610365610e71565b021790555060208201518154610100600160a81b0319166101006001600160a01b0392831602178255604080840151600184015560608401516002840180546001600160a01b03191691841691909117905560808401516003909301805460a086015160c087015160e090970151959094166001600160a81b031990911617600160a01b60ff948516021761ffff60a81b1916600160a81b939095169290920260ff60b01b191693909317600160b01b9215159290920291909117905551339084907f37dc6951727318dbb5c405cf4d9723a9f01775d16070561344d46cbc71fc7fb89061045c905f908190349089908990610f5d565b60405180910390a361046d60015f55565b505050565b61047a610cdd565b6001600160a01b0384166104c05760405162461bcd60e51b815260206004820152600d60248201526c24b73b30b634b2103a37b5b2b760991b6044820152606401610255565b5f83116105005760405162461bcd60e51b815260206004820152600e60248201526d125b9d985b1a5908185b5bdd5b9d60921b6044820152606401610255565b5f85815260026020526040902060010154156105525760405162461bcd60e51b8152602060048201526011602482015270105b1c9958591e4819195c1bdcda5d1959607a1b6044820152606401610255565b61055c8183610f3e565b60ff1660641461059e5760405162461bcd60e51b815260206004820152600d60248201526c496e76616c696420726174696f60981b6044820152606401610255565b6040516323b872dd60e01b8152336004820152306024820152604481018490525f906001600160a01b038616906323b872dd906064016020604051808303815f875af11580156105f0573d5f5f3e3d5ffd5b505050506040513d601f19601f820116820180604052508101906106149190610f9a565b90508061065b5760405162461bcd60e51b8152602060048201526015602482015274151bdad95b881d1c985b9cd9995c8819985a5b1959605a1b6044820152606401610255565b60408051610100810190915280600181526001600160a01b03871660208083019190915260408083018890523360608401525f6080840181905260ff80891660a0860152871660c085015260e09093018390528983526002909152902081518154829060ff1916600183818111156106d5576106d5610e71565b021790555060208201518154610100600160a81b0319166101006001600160a01b039283160217825560408084015160018085019190915560608501516002850180546001600160a01b03191691851691909117905560808501516003909401805460a087015160c088015160e090980151969095166001600160a81b031990911617600160a01b60ff958616021761ffff60a81b1916600160a81b949096169390930260ff60b01b191694909417600160b01b9315159390930292909217905551339188917f37dc6951727318dbb5c405cf4d9723a9f01775d16070561344d46cbc71fc7fb8916107ce918a908a908a908a90610f5d565b60405180910390a3506107e060015f55565b5050505050565b6107ef610d05565b6107f85f610d32565b565b610802610d05565b6001600160a01b03811661084b5760405162461bcd60e51b815260206004820152601060248201526f24b73b30b634b21037b832b930ba37b960811b6044820152606401610255565b600380546001600160a01b0319166001600160a01b0392909216919091179055565b610875610d05565b61087d610cdd565b5f8281526002602052604090206003810154600160b01b900460ff16156108dc5760405162461bcd60e51b8152602060048201526013602482015272105b1c9958591e48191a5cdd1c9a589d5d1959606a1b6044820152606401610255565b5f81600101541161091b5760405162461bcd60e51b81526020600482015260096024820152684e6f20626f756e747960b81b6044820152606401610255565b6001600160a01b0382166109625760405162461bcd60e51b815260206004820152600e60248201526d24b73b30b634b21039b7b63b32b960911b6044820152606401610255565b600381015460018201545f9160649161098591600160a01b900460ff1690610fb9565b61098f9190610fd0565b90505f60648360030160159054906101000a900460ff1660ff1684600101546109b89190610fb9565b6109c29190610fd0565b600384018054600162ff000160a01b0319166001600160a01b03871617600160b01b17905590505f835460ff166001811115610a0057610a00610e71565b03610b00575f846001600160a01b0316836040515f6040518083038185875af1925050503d805f8114610a4e576040519150601f19603f3d011682016040523d82523d5f602084013e610a53565b606091505b50506003546040519192505f916001600160a01b039091169084908381818185875af1925050503d805f8114610aa4576040519150601f19603f3d011682016040523d82523d5f602084013e610aa9565b606091505b50509050818015610ab75750805b610af95760405162461bcd60e51b8152602060048201526013602482015272115512081d1c985b9cd9995c8819985a5b1959606a1b6044820152606401610255565b5050610c4a565b825460405163a9059cbb60e01b81526001600160a01b03868116600483015260248201859052610100909204909116905f90829063a9059cbb906044016020604051808303815f875af1158015610b59573d5f5f3e3d5ffd5b505050506040513d601f19601f82011682018060405250810190610b7d9190610f9a565b60035460405163a9059cbb60e01b81526001600160a01b039182166004820152602481018690529192505f919084169063a9059cbb906044016020604051808303815f875af1158015610bd2573d5f5f3e3d5ffd5b505050506040513d601f19601f82011682018060405250810190610bf69190610f9a565b9050818015610c025750805b610c465760405162461bcd60e51b8152602060048201526015602482015274151bdad95b881d1c985b9cd9995c8819985a5b1959605a1b6044820152606401610255565b5050505b60408051838152602081018390526001600160a01b0386169187917febfe46b2b9627430364d1cff67d061f2e2f59dfedbd307f28a227b9ba08ad807910160405180910390a3505050610c9c60015f55565b5050565b610ca8610d05565b6001600160a01b038116610cd157604051631e4fbdf760e01b81525f6004820152602401610255565b610cda81610d32565b50565b60025f5403610cff57604051633ee5aeb560e01b815260040160405180910390fd5b60025f55565b6001546001600160a01b031633146107f85760405163118cdaa760e01b8152336004820152602401610255565b600180546001600160a01b038381166001600160a01b0319831681179093556040519116919082907f8be0079c531659141344cd1fd0a4f28419497f9722a3daafe3b4186f6b6457e0905f90a35050565b803560ff81168114610d93575f5ffd5b919050565b5f5f5f60608486031215610daa575f5ffd5b83359250610dba60208501610d83565b9150610dc860408501610d83565b90509250925092565b80356001600160a01b0381168114610d93575f5ffd5b5f5f5f5f5f60a08688031215610dfb575f5ffd5b85359450610e0b60208701610dd1565b935060408601359250610e2060608701610d83565b9150610e2e60808701610d83565b90509295509295909350565b5f60208284031215610e4a575f5ffd5b610e5382610dd1565b9392505050565b5f60208284031215610e6a575f5ffd5b5035919050565b634e487b7160e01b5f52602160045260245ffd5b60028110610ea157634e487b7160e01b5f52602160045260245ffd5b9052565b6101008101610eb4828b610e85565b6001600160a01b0398891660208301526040820197909752948716606086015292909516608084015260ff90811660a084015290931660c082015291151560e090920191909152919050565b5f5f60408385031215610f11575f5ffd5b82359150610f2160208401610dd1565b90509250929050565b634e487b7160e01b5f52601160045260245ffd5b60ff8181168382160190811115610f5757610f57610f2a565b92915050565b60a08101610f6b8288610e85565b6001600160a01b03959095166020820152604081019390935260ff918216606084015216608090910152919050565b5f60208284031215610faa575f5ffd5b81518015158114610e53575f5ffd5b8082028115828204841417610f5757610f57610f2a565b5f82610fea57634e487b7160e01b5f52601260045260245ffd5b50049056fea264697066735822122053cb8bb2a338ba8492805fbc1d704a1dded59d2843a7cc74527525675519acca64736f6c634300081c0033",
  "linkReferences": {},
  "deployedLinkReferences": {},
  "immutableReferences": {},
  "inputSourceName": "project/src/MultiTokenBountyVault.sol",
  "buildInfoId": "solc-0_8_28-b8b3fa6eba45d71b5cfb16f50b2028974084528b"
}