{
  "abi": [
    {
      "type": "constructor",
      "inputs": [
        {
          "name": "_operator",
          "type": "address",
          "internalType": "address"
        },
        {
          "name": "_initialOwner",
          "type": "address",
          "internalType": "address"
        }
      ],
      "stateMutability": "nonpayable"
    },
    {
      "type": "function",
      "name": "bounties",
      "inputs": [
        {
          "name": "",
          "type": "bytes32",
          "internalType": "bytes32"
        }
      ],
      "outputs": [
        {
          "name": "tokenType",
          "type": "uint8",
          "internalType": "enum MultiTokenBountyVault.TokenType"
        },
        {
          "name": "tokenAddress",
          "type": "address",
          "internalType": "address"
        },
        {
          "name": "totalAmount",
          "type": "uint256",
          "internalType": "uint256"
        },
        {
          "name": "depositor",
          "type": "address",
          "internalType": "address"
        },
        {
          "name": "solver",
          "type": "address",
          "internalType": "address"
        },
        {
          "name": "solverShare",
          "type": "uint8",
          "internalType": "uint8"
        },
        {
          "name": "operatorShare",
          "type": "uint8",
          "internalType": "uint8"
        },
        {
          "name": "distributed",
          "type": "bool",
          "internalType": "bool"
        }
      ],
      "stateMutability": "view"
    },
    {
      "type": "function",
      "name": "depositETH",
      "inputs": [
        {
          "name": "bountyId",
          "type": "string",
          "internalType": "string"
        },
        {
          "name": "solverShare",
          "type": "uint8",
          "internalType": "uint8"
        },
        {
          "name": "operatorShare",
          "type": "uint8",
          "internalType": "uint8"
        }
      ],
      "outputs": [],
      "stateMutability": "payable"
    },
    {
      "type": "function",
      "name": "depositToken",
      "inputs": [
        {
          "name": "bountyId",
          "type": "string",
          "internalType": "string"
        },
        {
          "name": "token",
          "type": "address",
          "internalType": "address"
        },
        {
          "name": "amount",
          "type": "uint256",
          "internalType": "uint256"
        },
        {
          "name": "solverShare",
          "type": "uint8",
          "internalType": "uint8"
        },
        {
          "name": "operatorShare",
          "type": "uint8",
          "internalType": "uint8"
        }
      ],
      "outputs": [],
      "stateMutability": "nonpayable"
    },
    {
      "type": "function",
      "name": "distribute",
      "inputs": [
        {
          "name": "bountyId",
          "type": "string",
          "internalType": "string"
        },
        {
          "name": "solver",
          "type": "address",
          "internalType": "address"
        }
      ],
      "outputs": [],
      "stateMutability": "nonpayable"
    },
    {
      "type": "function",
      "name": "operator",
      "inputs": [],
      "outputs": [
        {
          "name": "",
          "type": "address",
          "internalType": "address"
        }
      ],
      "stateMutability": "view"
    },
    {
      "type": "function",
      "name": "owner",
      "inputs": [],
      "outputs": [
        {
          "name": "",
          "type": "address",
          "internalType": "address"
        }
      ],
      "stateMutability": "view"
    },
    {
      "type": "function",
      "name": "renounceOwnership",
      "inputs": [],
      "outputs": [],
      "stateMutability": "nonpayable"
    },
    {
      "type": "function",
      "name": "setOperator",
      "inputs": [
        {
          "name": "newOperator",
          "type": "address",
          "internalType": "address"
        }
      ],
      "outputs": [],
      "stateMutability": "nonpayable"
    },
    {
      "type": "function",
      "name": "transferOwnership",
      "inputs": [
        {
          "name": "newOwner",
          "type": "address",
          "internalType": "address"
        }
      ],
      "outputs": [],
      "stateMutability": "nonpayable"
    },
    {
      "type": "event",
      "name": "DebugAddress",
      "inputs": [
        {
          "name": "label",
          "type": "string",
          "indexed": false,
          "internalType": "string"
        },
        {
          "name": "value",
          "type": "address",
          "indexed": false,
          "internalType": "address"
        }
      ],
      "anonymous": false
    },
    {
      "type": "event",
      "name": "DebugBool",
      "inputs": [
        {
          "name": "label",
          "type": "string",
          "indexed": false,
          "internalType": "string"
        },
        {
          "name": "value",
          "type": "bool",
          "indexed": false,
          "internalType": "bool"
        }
      ],
      "anonymous": false
    },
    {
      "type": "event",
      "name": "DebugBytes32",
      "inputs": [
        {
          "name": "label",
          "type": "string",
          "indexed": false,
          "internalType": "string"
        },
        {
          "name": "value",
          "type": "bytes32",
          "indexed": false,
          "internalType": "bytes32"
        }
      ],
      "anonymous": false
    },
    {
      "type": "event",
      "name": "DebugLog",
      "inputs": [
        {
          "name": "message",
          "type": "string",
          "indexed": false,
          "internalType": "string"
        }
      ],
      "anonymous": false
    },
    {
      "type": "event",
      "name": "DebugUint",
      "inputs": [
        {
          "name": "label",
          "type": "string",
          "indexed": false,
          "internalType": "string"
        },
        {
          "name": "value",
          "type": "uint256",
          "indexed": false,
          "internalType": "uint256"
        }
      ],
      "anonymous": false
    },
    {
      "type": "event",
      "name": "Deposited",
      "inputs": [
        {
          "name": "bountyId",
          "type": "string",
          "indexed": false,
          "internalType": "string"
        },
        {
          "name": "tokenType",
          "type": "uint8",
          "indexed": false,
          "internalType": "enum MultiTokenBountyVault.TokenType"
        },
        {
          "name": "tokenAddress",
          "type": "address",
          "indexed": false,
          "internalType": "address"
        },
        {
          "name": "depositor",
          "type": "address",
          "indexed": true,
          "internalType": "address"
        },
        {
          "name": "amount",
          "type": "uint256",
          "indexed": false,
          "internalType": "uint256"
        },
        {
          "name": "solverShare",
          "type": "uint8",
          "indexed": false,
          "internalType": "uint8"
        },
        {
          "name": "operatorShare",
          "type": "uint8",
          "indexed": false,
          "internalType": "uint8"
        }
      ],
      "anonymous": false
    },
    {
      "type": "event",
      "name": "Distributed",
      "inputs": [
        {
          "name": "bountyId",
          "type": "string",
          "indexed": false,
          "internalType": "string"
        },
        {
          "name": "solver",
          "type": "address",
          "indexed": true,
          "internalType": "address"
        },
        {
          "name": "solverAmount",
          "type": "uint256",
          "indexed": false,
          "internalType": "uint256"
        },
        {
          "name": "operatorAmount",
          "type": "uint256",
          "indexed": false,
          "internalType": "uint256"
        }
      ],
      "anonymous": false
    },
    {
      "type": "event",
      "name": "OwnershipTransferred",
      "inputs": [
        {
          "name": "previousOwner",
          "type": "address",
          "indexed": true,
          "internalType": "address"
        },
        {
          "name": "newOwner",
          "type": "address",
          "indexed": true,
          "internalType": "address"
        }
      ],
      "anonymous": false
    },
    {
      "type": "error",
      "name": "OwnableInvalidOwner",
      "inputs": [
        {
          "name": "owner",
          "type": "address",
          "internalType": "address"
        }
      ]
    },
    {
      "type": "error",
      "name": "OwnableUnauthorizedAccount",
      "inputs": [
        {
          "name": "account",
          "type": "address",
          "internalType": "address"
        }
      ]
    },
    {
      "type": "error",
      "name": "ReentrancyGuardReentrantCall",
      "inputs": []
    }
  ],
  "bytecode": {
    "object": "0x608060405234801562000010575f80fd5b5060405162002b5038038062002b508339818101604052810190620000369190620002a4565b8060015f819055505f73ffffffffffffffffffffffffffffffffffffffff168173ffffffffffffffffffffffffffffffffffffffff1603620000b1575f6040517f1e4fbdf7000000000000000000000000000000000000000000000000000000008152600401620000a89190620002fa565b60405180910390fd5b620000c2816200017c60201b60201c565b505f73ffffffffffffffffffffffffffffffffffffffff168273ffffffffffffffffffffffffffffffffffffffff160362000134576040517f08c379a00000000000000000000000000000000000000000000000000000000081526004016200012b9062000373565b60405180910390fd5b8160035f6101000a81548173ffffffffffffffffffffffffffffffffffffffff021916908373ffffffffffffffffffffffffffffffffffffffff160217905550505062000393565b5f60015f9054906101000a900473ffffffffffffffffffffffffffffffffffffffff1690508160015f6101000a81548173ffffffffffffffffffffffffffffffffffffffff021916908373ffffffffffffffffffffffffffffffffffffffff1602179055508173ffffffffffffffffffffffffffffffffffffffff168173ffffffffffffffffffffffffffffffffffffffff167f8be0079c531659141344cd1fd0a4f28419497f9722a3daafe3b4186f6b6457e060405160405180910390a35050565b5f80fd5b5f73ffffffffffffffffffffffffffffffffffffffff82169050919050565b5f6200026e8262000243565b9050919050565b620002808162000262565b81146200028b575f80fd5b50565b5f815190506200029e8162000275565b92915050565b5f8060408385031215620002bd57620002bc6200023f565b5b5f620002cc858286016200028e565b9250506020620002df858286016200028e565b9150509250929050565b620002f48162000262565b82525050565b5f6020820190506200030f5f830184620002e9565b92915050565b5f82825260208201905092915050565b7f496e76616c6964206f70657261746f72000000000000000000000000000000005f82015250565b5f6200035b60108362000315565b9150620003688262000325565b602082019050919050565b5f6020820190508181035f8301526200038c816200034d565b9050919050565b6127af80620003a15f395ff3fe608060405260043610610085575f3560e01c806377420b521161005857806377420b52146101195780638da5cb5b14610135578063b3ab15fb1461015f578063bf5522da14610187578063f2fde38b146101ca57610085565b80632d85314b14610089578063397addd5146100b1578063570ca735146100d9578063715018a614610103575b5f80fd5b348015610094575f80fd5b506100af60048036038101906100aa9190611b8c565b6101f2565b005b3480156100bc575f80fd5b506100d760048036038101906100d29190611c1f565b61069c565b005b3480156100e4575f80fd5b506100ed611098565b6040516100fa9190611c88565b60405180910390f35b34801561010e575f80fd5b506101176110bd565b005b610133600480360381019061012e9190611ca1565b6110d0565b005b348015610140575f80fd5b50610149611448565b6040516101569190611c88565b60405180910390f35b34801561016a575f80fd5b5061018560048036038101906101809190611d0d565b611470565b005b348015610192575f80fd5b506101ad60048036038101906101a89190611d6b565b611529565b6040516101c1989796959493929190611e41565b60405180910390f35b3480156101d5575f80fd5b506101f060048036038101906101eb9190611d0d565b6115fd565b005b6101fa611681565b5f610204866116c5565b90505f73ffffffffffffffffffffffffffffffffffffffff168573ffffffffffffffffffffffffffffffffffffffff1603610274576040517f08c379a000000000000000000000000000000000000000000000000000000000815260040161026b90611f17565b60405180910390fd5b5f84116102b6576040517f08c379a00000000000000000000000000000000000000000000000000000000081526004016102ad90611f7f565b60405180910390fd5b5f60025f8381526020019081526020015f20600101541461030c576040517f08c379a000000000000000000000000000000000000000000000000000000000815260040161030390611fe7565b60405180910390fd5b6064828461031a9190612032565b60ff161461035d576040517f08c379a0000000000000000000000000000000000000000000000000000000008152600401610354906120b0565b60405180910390fd5b5f8573ffffffffffffffffffffffffffffffffffffffff166323b872dd3330886040518463ffffffff1660e01b815260040161039b939291906120ce565b6020604051808303815f875af11580156103b7573d5f803e3d5ffd5b505050506040513d601f19601f820116820180604052508101906103db919061212d565b90508061041d576040517f08c379a0000000000000000000000000000000000000000000000000000000008152600401610414906121a2565b60405180910390fd5b60405180610100016040528060018081111561043c5761043b611d96565b5b81526020018773ffffffffffffffffffffffffffffffffffffffff1681526020018681526020013373ffffffffffffffffffffffffffffffffffffffff1681526020015f73ffffffffffffffffffffffffffffffffffffffff1681526020018560ff1681526020018460ff1681526020015f151581525060025f8481526020019081526020015f205f820151815f015f6101000a81548160ff021916908360018111156104ec576104eb611d96565b5b02179055506020820151815f0160016101000a81548173ffffffffffffffffffffffffffffffffffffffff021916908373ffffffffffffffffffffffffffffffffffffffff160217905550604082015181600101556060820151816002015f6101000a81548173ffffffffffffffffffffffffffffffffffffffff021916908373ffffffffffffffffffffffffffffffffffffffff1602179055506080820151816003015f6101000a81548173ffffffffffffffffffffffffffffffffffffffff021916908373ffffffffffffffffffffffffffffffffffffffff16021790555060a08201518160030160146101000a81548160ff021916908360ff16021790555060c08201518160030160156101000a81548160ff021916908360ff16021790555060e08201518160030160166101000a81548160ff0219169083151502179055509050503373ffffffffffffffffffffffffffffffffffffffff167fc81bf52a069cdcd47a906dd2d92804b4f31cfdae83f21e6262988c40c9c6e8f8886001898989896040516106839695949392919061222a565b60405180910390a250506106956116f4565b5050505050565b6106a46116fd565b6106ac611681565b6106ea6040518060400160405280601281526020017f454e544552206469737472696275746528290000000000000000000000000000815250611784565b6107316040518060400160405280600981526020017f626f756e74794b6579000000000000000000000000000000000000000000000081525061072c846116c5565b6117be565b6107706040518060400160405280600b81526020017f736f6c766572506172616d000000000000000000000000000000000000000000815250826117fb565b5f61077a836116c5565b90505f60025f8381526020019081526020015f2090506107e06040518060400160405280601281526020017f626f756e74792e646973747269627574656400000000000000000000000000008152508260030160169054906101000a900460ff16611838565b8060030160169054906101000a900460ff1615610832576040517f08c379a0000000000000000000000000000000000000000000000000000000008152600401610829906122da565b60405180910390fd5b6108756040518060400160405280601281526020017f626f756e74792e746f74616c416d6f756e7400000000000000000000000000008152508260010154611875565b5f8160010154116108bb576040517f08c379a00000000000000000000000000000000000000000000000000000000081526004016108b290612342565b60405180910390fd5b61091d6040518060400160405280601381526020017f626f756e74792e746f6b656e4164647265737300000000000000000000000000815250825f0160019054906101000a900473ffffffffffffffffffffffffffffffffffffffff166117fb565b6109706040518060400160405280600b81526020017f736f6c76657253686172650000000000000000000000000000000000000000008152508260030160149054906101000a900460ff1660ff16611875565b6109c36040518060400160405280600d81526020017f6f70657261746f725368617265000000000000000000000000000000000000008152508260030160159054906101000a900460ff1660ff16611875565b5f73ffffffffffffffffffffffffffffffffffffffff168373ffffffffffffffffffffffffffffffffffffffff1603610a31576040517f08c379a0000000000000000000000000000000000000000000000000000000008152600401610a28906123aa565b60405180910390fd5b5f60648260030160149054906101000a900460ff1660ff168360010154610a5891906123c8565b610a629190612436565b90505f60648360030160159054906101000a900460ff1660ff168460010154610a8b91906123c8565b610a959190612436565b9050610ad66040518060400160405280600c81526020017f736f6c766572416d6f756e74000000000000000000000000000000000000000081525083611875565b610b156040518060400160405280600e81526020017f6f70657261746f72416d6f756e7400000000000000000000000000000000000081525082611875565b84836003015f6101000a81548173ffffffffffffffffffffffffffffffffffffffff021916908373ffffffffffffffffffffffffffffffffffffffff16021790555060018360030160166101000a81548160ff0219169083151502179055505f6001811115610b8757610b86611d96565b5b835f015f9054906101000a900460ff166001811115610ba957610ba8611d96565b5b03610dab57610bec6040518060400160405280601481526020017f646973747269627574653a20455448206d6f6465000000000000000000000000815250611784565b5f8573ffffffffffffffffffffffffffffffffffffffff1683604051610c1190612493565b5f6040518083038185875af1925050503d805f8114610c4b576040519150601f19603f3d011682016040523d82523d5f602084013e610c50565b606091505b505090505f60035f9054906101000a900473ffffffffffffffffffffffffffffffffffffffff1673ffffffffffffffffffffffffffffffffffffffff1683604051610c9a90612493565b5f6040518083038185875af1925050503d805f8114610cd4576040519150601f19603f3d011682016040523d82523d5f602084013e610cd9565b606091505b50509050610d1c6040518060400160405280600281526020017f733100000000000000000000000000000000000000000000000000000000000081525083611838565b610d5b6040518060400160405280600281526020017f733200000000000000000000000000000000000000000000000000000000000081525082611838565b818015610d655750805b610da4576040517f08c379a0000000000000000000000000000000000000000000000000000000008152600401610d9b906124f1565b60405180910390fd5b5050610ff8565b610de96040518060400160405280601681526020017f646973747269627574653a204552433230206d6f646500000000000000000000815250611784565b5f835f0160019054906101000a900473ffffffffffffffffffffffffffffffffffffffff1690505f8173ffffffffffffffffffffffffffffffffffffffff1663a9059cbb88866040518363ffffffff1660e01b8152600401610e4c92919061250f565b6020604051808303815f875af1158015610e68573d5f803e3d5ffd5b505050506040513d601f19601f82011682018060405250810190610e8c919061212d565b90505f8273ffffffffffffffffffffffffffffffffffffffff1663a9059cbb60035f9054906101000a900473ffffffffffffffffffffffffffffffffffffffff16866040518363ffffffff1660e01b8152600401610eeb92919061250f565b6020604051808303815f875af1158015610f07573d5f803e3d5ffd5b505050506040513d601f19601f82011682018060405250810190610f2b919061212d565b9050610f6c6040518060400160405280600281526020017f733100000000000000000000000000000000000000000000000000000000000081525083611838565b610fab6040518060400160405280600281526020017f733200000000000000000000000000000000000000000000000000000000000081525082611838565b818015610fb55750805b610ff4576040517f08c379a0000000000000000000000000000000000000000000000000000000008152600401610feb906121a2565b60405180910390fd5b5050505b8473ffffffffffffffffffffffffffffffffffffffff167fc5e1cde08b7ee1dac117abef586301492018827f701ad030d8db36773474efab87848460405161104293929190612536565b60405180910390a26110886040518060400160405280601d81526020017f45584954206469737472696275746528292073756363657373205b765d000000815250611784565b505050506110946116f4565b5050565b60035f9054906101000a900473ffffffffffffffffffffffffffffffffffffffff1681565b6110c56116fd565b6110ce5f6118b2565b565b6110d8611681565b5f6110e2846116c5565b90505f3411611126576040517f08c379a000000000000000000000000000000000000000000000000000000000815260040161111d906125bc565b60405180910390fd5b5f60025f8381526020019081526020015f20600101541461117c576040517f08c379a000000000000000000000000000000000000000000000000000000000815260040161117390611fe7565b60405180910390fd5b6064828461118a9190612032565b60ff16146111cd576040517f08c379a00000000000000000000000000000000000000000000000000000000081526004016111c4906120b0565b60405180910390fd5b6040518061010001604052805f60018111156111ec576111eb611d96565b5b81526020015f73ffffffffffffffffffffffffffffffffffffffff1681526020013481526020013373ffffffffffffffffffffffffffffffffffffffff1681526020015f73ffffffffffffffffffffffffffffffffffffffff1681526020018460ff1681526020018360ff1681526020015f151581525060025f8381526020019081526020015f205f820151815f015f6101000a81548160ff0219169083600181111561129c5761129b611d96565b5b02179055506020820151815f0160016101000a81548173ffffffffffffffffffffffffffffffffffffffff021916908373ffffffffffffffffffffffffffffffffffffffff160217905550604082015181600101556060820151816002015f6101000a81548173ffffffffffffffffffffffffffffffffffffffff021916908373ffffffffffffffffffffffffffffffffffffffff1602179055506080820151816003015f6101000a81548173ffffffffffffffffffffffffffffffffffffffff021916908373ffffffffffffffffffffffffffffffffffffffff16021790555060a08201518160030160146101000a81548160ff021916908360ff16021790555060c08201518160030160156101000a81548160ff021916908360ff16021790555060e08201518160030160166101000a81548160ff0219169083151502179055509050503373ffffffffffffffffffffffffffffffffffffffff167fc81bf52a069cdcd47a906dd2d92804b4f31cfdae83f21e6262988c40c9c6e8f8855f803488886040516114329695949392919061222a565b60405180910390a2506114436116f4565b505050565b5f60015f9054906101000a900473ffffffffffffffffffffffffffffffffffffffff16905090565b6114786116fd565b5f73ffffffffffffffffffffffffffffffffffffffff168173ffffffffffffffffffffffffffffffffffffffff16036114e6576040517f08c379a00000000000000000000000000000000000000000000000000000000081526004016114dd90612624565b60405180910390fd5b8060035f6101000a81548173ffffffffffffffffffffffffffffffffffffffff021916908373ffffffffffffffffffffffffffffffffffffffff16021790555050565b6002602052805f5260405f205f91509050805f015f9054906101000a900460ff1690805f0160019054906101000a900473ffffffffffffffffffffffffffffffffffffffff1690806001015490806002015f9054906101000a900473ffffffffffffffffffffffffffffffffffffffff1690806003015f9054906101000a900473ffffffffffffffffffffffffffffffffffffffff16908060030160149054906101000a900460ff16908060030160159054906101000a900460ff16908060030160169054906101000a900460ff16905088565b6116056116fd565b5f73ffffffffffffffffffffffffffffffffffffffff168173ffffffffffffffffffffffffffffffffffffffff1603611675575f6040517f1e4fbdf700000000000000000000000000000000000000000000000000000000815260040161166c9190611c88565b60405180910390fd5b61167e816118b2565b50565b60025f54036116bc576040517f3ee5aeb500000000000000000000000000000000000000000000000000000000815260040160405180910390fd5b60025f81905550565b5f816040516020016116d7919061267c565b604051602081830303815290604052805190602001209050919050565b60015f81905550565b611705611975565b73ffffffffffffffffffffffffffffffffffffffff16611723611448565b73ffffffffffffffffffffffffffffffffffffffff161461178257611746611975565b6040517f118cdaa70000000000000000000000000000000000000000000000000000000081526004016117799190611c88565b60405180910390fd5b565b7f4be5e2ddd7b814bfc07153581bbbda6ea3d62d61c270f9788cae2f0297e18ae8816040516117b39190612692565b60405180910390a150565b7fddf94c665588bb5bfd4ea6fbfff0eda54f15ae7587942a2322e807db90bf8a8a82826040516117ef9291906126c1565b60405180910390a15050565b7fb3f7d6c63a62ab0e6ae5263ef1deb9c5a64f4689288c380db949c116314a5540828260405161182c9291906126ef565b60405180910390a15050565b7fc0971de8d615669ce336a81fbc0043ac15834948dd39e24e22f73d3304db2e15828260405161186992919061271d565b60405180910390a15050565b7f2c78221d853bf45521bf53ad2802eb4470185a3cad34373f42e4639a8fdeb19782826040516118a692919061274b565b60405180910390a15050565b5f60015f9054906101000a900473ffffffffffffffffffffffffffffffffffffffff1690508160015f6101000a81548173ffffffffffffffffffffffffffffffffffffffff021916908373ffffffffffffffffffffffffffffffffffffffff1602179055508173ffffffffffffffffffffffffffffffffffffffff168173ffffffffffffffffffffffffffffffffffffffff167f8be0079c531659141344cd1fd0a4f28419497f9722a3daafe3b4186f6b6457e060405160405180910390a35050565b5f33905090565b5f604051905090565b5f80fd5b5f80fd5b5f80fd5b5f80fd5b5f601f19601f8301169050919050565b7f4e487b71000000000000000000000000000000000000000000000000000000005f52604160045260245ffd5b6119db82611995565b810181811067ffffffffffffffff821117156119fa576119f96119a5565b5b80604052505050565b5f611a0c61197c565b9050611a1882826119d2565b919050565b5f67ffffffffffffffff821115611a3757611a366119a5565b5b611a4082611995565b9050602081019050919050565b828183375f83830152505050565b5f611a6d611a6884611a1d565b611a03565b905082815260208101848484011115611a8957611a88611991565b5b611a94848285611a4d565b509392505050565b5f82601f830112611ab057611aaf61198d565b5b8135611ac0848260208601611a5b565b91505092915050565b5f73ffffffffffffffffffffffffffffffffffffffff82169050919050565b5f611af282611ac9565b9050919050565b611b0281611ae8565b8114611b0c575f80fd5b50565b5f81359050611b1d81611af9565b92915050565b5f819050919050565b611b3581611b23565b8114611b3f575f80fd5b50565b5f81359050611b5081611b2c565b92915050565b5f60ff82169050919050565b611b6b81611b56565b8114611b75575f80fd5b50565b5f81359050611b8681611b62565b92915050565b5f805f805f60a08688031215611ba557611ba4611985565b5b5f86013567ffffffffffffffff811115611bc257611bc1611989565b5b611bce88828901611a9c565b9550506020611bdf88828901611b0f565b9450506040611bf088828901611b42565b9350506060611c0188828901611b78565b9250506080611c1288828901611b78565b9150509295509295909350565b5f8060408385031215611c3557611c34611985565b5b5f83013567ffffffffffffffff811115611c5257611c51611989565b5b611c5e85828601611a9c565b9250506020611c6f85828601611b0f565b9150509250929050565b611c8281611ae8565b82525050565b5f602082019050611c9b5f830184611c79565b92915050565b5f805f60608486031215611cb857611cb7611985565b5b5f84013567ffffffffffffffff811115611cd557611cd4611989565b5b611ce186828701611a9c565b9350506020611cf286828701611b78565b9250506040611d0386828701611b78565b9150509250925092565b5f60208284031215611d2257611d21611985565b5b5f611d2f84828501611b0f565b91505092915050565b5f819050919050565b611d4a81611d38565b8114611d54575f80fd5b50565b5f81359050611d6581611d41565b92915050565b5f60208284031215611d8057611d7f611985565b5b5f611d8d84828501611d57565b91505092915050565b7f4e487b71000000000000000000000000000000000000000000000000000000005f52602160045260245ffd5b60028110611dd457611dd3611d96565b5b50565b5f819050611de482611dc3565b919050565b5f611df382611dd7565b9050919050565b611e0381611de9565b82525050565b611e1281611b23565b82525050565b611e2181611b56565b82525050565b5f8115159050919050565b611e3b81611e27565b82525050565b5f61010082019050611e555f83018b611dfa565b611e62602083018a611c79565b611e6f6040830189611e09565b611e7c6060830188611c79565b611e896080830187611c79565b611e9660a0830186611e18565b611ea360c0830185611e18565b611eb060e0830184611e32565b9998505050505050505050565b5f82825260208201905092915050565b7f496e76616c696420746f6b656e000000000000000000000000000000000000005f82015250565b5f611f01600d83611ebd565b9150611f0c82611ecd565b602082019050919050565b5f6020820190508181035f830152611f2e81611ef5565b9050919050565b7f496e76616c696420616d6f756e740000000000000000000000000000000000005f82015250565b5f611f69600e83611ebd565b9150611f7482611f35565b602082019050919050565b5f6020820190508181035f830152611f9681611f5d565b9050919050565b7f416c7265616479206465706f73697465640000000000000000000000000000005f82015250565b5f611fd1601183611ebd565b9150611fdc82611f9d565b602082019050919050565b5f6020820190508181035f830152611ffe81611fc5565b9050919050565b7f4e487b71000000000000000000000000000000000000000000000000000000005f52601160045260245ffd5b5f61203c82611b56565b915061204783611b56565b9250828201905060ff8111156120605761205f612005565b5b92915050565b7f496e76616c696420726174696f000000000000000000000000000000000000005f82015250565b5f61209a600d83611ebd565b91506120a582612066565b602082019050919050565b5f6020820190508181035f8301526120c78161208e565b9050919050565b5f6060820190506120e15f830186611c79565b6120ee6020830185611c79565b6120fb6040830184611e09565b949350505050565b61210c81611e27565b8114612116575f80fd5b50565b5f8151905061212781612103565b92915050565b5f6020828403121561214257612141611985565b5b5f61214f84828501612119565b91505092915050565b7f546f6b656e207472616e73666572206661696c656400000000000000000000005f82015250565b5f61218c601583611ebd565b915061219782612158565b602082019050919050565b5f6020820190508181035f8301526121b981612180565b9050919050565b5f81519050919050565b5f5b838110156121e75780820151818401526020810190506121cc565b5f8484015250505050565b5f6121fc826121c0565b6122068185611ebd565b93506122168185602086016121ca565b61221f81611995565b840191505092915050565b5f60c0820190508181035f83015261224281896121f2565b90506122516020830188611dfa565b61225e6040830187611c79565b61226b6060830186611e09565b6122786080830185611e18565b61228560a0830184611e18565b979650505050505050565b7f416c7265616479206469737472696275746564000000000000000000000000005f82015250565b5f6122c4601383611ebd565b91506122cf82612290565b602082019050919050565b5f6020820190508181035f8301526122f1816122b8565b9050919050565b7f4e6f20626f756e747900000000000000000000000000000000000000000000005f82015250565b5f61232c600983611ebd565b9150612337826122f8565b602082019050919050565b5f6020820190508181035f83015261235981612320565b9050919050565b7f496e76616c696420736f6c7665720000000000000000000000000000000000005f82015250565b5f612394600e83611ebd565b915061239f82612360565b602082019050919050565b5f6020820190508181035f8301526123c181612388565b9050919050565b5f6123d282611b23565b91506123dd83611b23565b92508282026123eb81611b23565b9150828204841483151761240257612401612005565b5b5092915050565b7f4e487b71000000000000000000000000000000000000000000000000000000005f52601260045260245ffd5b5f61244082611b23565b915061244b83611b23565b92508261245b5761245a612409565b5b828204905092915050565b5f81905092915050565b50565b5f61247e5f83612466565b915061248982612470565b5f82019050919050565b5f61249d82612473565b9150819050919050565b7f455448207472616e73666572206661696c6564000000000000000000000000005f82015250565b5f6124db601383611ebd565b91506124e6826124a7565b602082019050919050565b5f6020820190508181035f830152612508816124cf565b9050919050565b5f6040820190506125225f830185611c79565b61252f6020830184611e09565b9392505050565b5f6060820190508181035f83015261254e81866121f2565b905061255d6020830185611e09565b61256a6040830184611e09565b949350505050565b7f4e6f204554482073656e740000000000000000000000000000000000000000005f82015250565b5f6125a6600b83611ebd565b91506125b182612572565b602082019050919050565b5f6020820190508181035f8301526125d38161259a565b9050919050565b7f496e76616c6964206f70657261746f72000000000000000000000000000000005f82015250565b5f61260e601083611ebd565b9150612619826125da565b602082019050919050565b5f6020820190508181035f83015261263b81612602565b9050919050565b5f81905092915050565b5f612656826121c0565b6126608185612642565b93506126708185602086016121ca565b80840191505092915050565b5f612687828461264c565b915081905092915050565b5f6020820190508181035f8301526126aa81846121f2565b905092915050565b6126bb81611d38565b82525050565b5f6040820190508181035f8301526126d981856121f2565b90506126e860208301846126b2565b9392505050565b5f6040820190508181035f83015261270781856121f2565b90506127166020830184611c79565b9392505050565b5f6040820190508181035f83015261273581856121f2565b90506127446020830184611e32565b9392505050565b5f6040820190508181035f83015261276381856121f2565b90506127726020830184611e09565b939250505056fea26469706673582212201bd8ac36e7a7651edb36def1d339db3ccc29afd48d372a1666f748d887cd925a64736f6c63430008180033",
    "linkReferences": {}
  },
  "methodIdentifiers": {
    "bounties(bytes32)": "bf5522da",
    "depositETH(string,uint8,uint8)": "77420b52",
    "depositToken(string,address,uint256,uint8,uint8)": "2d85314b",
    "distribute(string,address)": "397addd5",
    "operator()": "570ca735",
    "owner()": "8da5cb5b",
    "renounceOwnership()": "715018a6",
    "setOperator(address)": "b3ab15fb",
    "transferOwnership(address)": "f2fde38b"
  },
  "id": 20
}