{
  "abi": [
    {
      "type": "constructor",
      "inputs": [
        {
          "name": "_operator",
          "type": "address",
          "internalType": "address"
        },
        {
          "name": "_initialOwner",
          "type": "address",
          "internalType": "address"
        }
      ],
      "stateMutability": "nonpayable"
    },
    {
      "type": "function",
      "name": "bounties",
      "inputs": [
        {
          "name": "",
          "type": "bytes32",
          "internalType": "bytes32"
        }
      ],
      "outputs": [
        {
          "name": "tokenType",
          "type": "uint8",
          "internalType": "enum MultiTokenBountyVault.TokenType"
        },
        {
          "name": "tokenAddress",
          "type": "address",
          "internalType": "address"
        },
        {
          "name": "totalAmount",
          "type": "uint256",
          "internalType": "uint256"
        },
        {
          "name": "depositor",
          "type": "address",
          "internalType": "address"
        },
        {
          "name": "solver",
          "type": "address",
          "internalType": "address"
        },
        {
          "name": "solverShare",
          "type": "uint8",
          "internalType": "uint8"
        },
        {
          "name": "operatorShare",
          "type": "uint8",
          "internalType": "uint8"
        },
        {
          "name": "distributed",
          "type": "bool",
          "internalType": "bool"
        }
      ],
      "stateMutability": "view"
    },
    {
      "type": "function",
      "name": "depositETH",
      "inputs": [
        {
          "name": "bountyId",
          "type": "string",
          "internalType": "string"
        },
        {
          "name": "solverShare",
          "type": "uint8",
          "internalType": "uint8"
        },
        {
          "name": "operatorShare",
          "type": "uint8",
          "internalType": "uint8"
        }
      ],
      "outputs": [],
      "stateMutability": "payable"
    },
    {
      "type": "function",
      "name": "depositToken",
      "inputs": [
        {
          "name": "bountyId",
          "type": "string",
          "internalType": "string"
        },
        {
          "name": "token",
          "type": "address",
          "internalType": "address"
        },
        {
          "name": "amount",
          "type": "uint256",
          "internalType": "uint256"
        },
        {
          "name": "solverShare",
          "type": "uint8",
          "internalType": "uint8"
        },
        {
          "name": "operatorShare",
          "type": "uint8",
          "internalType": "uint8"
        }
      ],
      "outputs": [],
      "stateMutability": "nonpayable"
    },
    {
      "type": "function",
      "name": "distribute",
      "inputs": [
        {
          "name": "bountyId",
          "type": "string",
          "internalType": "string"
        },
        {
          "name": "solver",
          "type": "address",
          "internalType": "address"
        }
      ],
      "outputs": [],
      "stateMutability": "nonpayable"
    },
    {
      "type": "function",
      "name": "operator",
      "inputs": [],
      "outputs": [
        {
          "name": "",
          "type": "address",
          "internalType": "address"
        }
      ],
      "stateMutability": "view"
    },
    {
      "type": "function",
      "name": "owner",
      "inputs": [],
      "outputs": [
        {
          "name": "",
          "type": "address",
          "internalType": "address"
        }
      ],
      "stateMutability": "view"
    },
    {
      "type": "function",
      "name": "renounceOwnership",
      "inputs": [],
      "outputs": [],
      "stateMutability": "nonpayable"
    },
    {
      "type": "function",
      "name": "setOperator",
      "inputs": [
        {
          "name": "newOperator",
          "type": "address",
          "internalType": "address"
        }
      ],
      "outputs": [],
      "stateMutability": "nonpayable"
    },
    {
      "type": "function",
      "name": "transferOwnership",
      "inputs": [
        {
          "name": "newOwner",
          "type": "address",
          "internalType": "address"
        }
      ],
      "outputs": [],
      "stateMutability": "nonpayable"
    },
    {
      "type": "event",
      "name": "Deposited",
      "inputs": [
        {
          "name": "bountyId",
          "type": "string",
          "indexed": false,
          "internalType": "string"
        },
        {
          "name": "tokenType",
          "type": "uint8",
          "indexed": false,
          "internalType": "enum MultiTokenBountyVault.TokenType"
        },
        {
          "name": "tokenAddress",
          "type": "address",
          "indexed": false,
          "internalType": "address"
        },
        {
          "name": "depositor",
          "type": "address",
          "indexed": true,
          "internalType": "address"
        },
        {
          "name": "amount",
          "type": "uint256",
          "indexed": false,
          "internalType": "uint256"
        },
        {
          "name": "solverShare",
          "type": "uint8",
          "indexed": false,
          "internalType": "uint8"
        },
        {
          "name": "operatorShare",
          "type": "uint8",
          "indexed": false,
          "internalType": "uint8"
        }
      ],
      "anonymous": false
    },
    {
      "type": "event",
      "name": "Distributed",
      "inputs": [
        {
          "name": "bountyId",
          "type": "string",
          "indexed": false,
          "internalType": "string"
        },
        {
          "name": "solver",
          "type": "address",
          "indexed": true,
          "internalType": "address"
        },
        {
          "name": "solverAmount",
          "type": "uint256",
          "indexed": false,
          "internalType": "uint256"
        },
        {
          "name": "operatorAmount",
          "type": "uint256",
          "indexed": false,
          "internalType": "uint256"
        }
      ],
      "anonymous": false
    },
    {
      "type": "event",
      "name": "OwnershipTransferred",
      "inputs": [
        {
          "name": "previousOwner",
          "type": "address",
          "indexed": true,
          "internalType": "address"
        },
        {
          "name": "newOwner",
          "type": "address",
          "indexed": true,
          "internalType": "address"
        }
      ],
      "anonymous": false
    },
    {
      "type": "error",
      "name": "OwnableInvalidOwner",
      "inputs": [
        {
          "name": "owner",
          "type": "address",
          "internalType": "address"
        }
      ]
    },
    {
      "type": "error",
      "name": "OwnableUnauthorizedAccount",
      "inputs": [
        {
          "name": "account",
          "type": "address",
          "internalType": "address"
        }
      ]
    },
    {
      "type": "error",
      "name": "ReentrancyGuardReentrantCall",
      "inputs": []
    }
  ],
  "bytecode": {
    "object": "0x608060405234801562000010575f80fd5b50604051620024a8380380620024a88339818101604052810190620000369190620002a4565b8060015f819055505f73ffffffffffffffffffffffffffffffffffffffff168173ffffffffffffffffffffffffffffffffffffffff1603620000b1575f6040517f1e4fbdf7000000000000000000000000000000000000000000000000000000008152600401620000a89190620002fa565b60405180910390fd5b620000c2816200017c60201b60201c565b505f73ffffffffffffffffffffffffffffffffffffffff168273ffffffffffffffffffffffffffffffffffffffff160362000134576040517f08c379a00000000000000000000000000000000000000000000000000000000081526004016200012b9062000373565b60405180910390fd5b8160035f6101000a81548173ffffffffffffffffffffffffffffffffffffffff021916908373ffffffffffffffffffffffffffffffffffffffff160217905550505062000393565b5f60015f9054906101000a900473ffffffffffffffffffffffffffffffffffffffff1690508160015f6101000a81548173ffffffffffffffffffffffffffffffffffffffff021916908373ffffffffffffffffffffffffffffffffffffffff1602179055508173ffffffffffffffffffffffffffffffffffffffff168173ffffffffffffffffffffffffffffffffffffffff167f8be0079c531659141344cd1fd0a4f28419497f9722a3daafe3b4186f6b6457e060405160405180910390a35050565b5f80fd5b5f73ffffffffffffffffffffffffffffffffffffffff82169050919050565b5f6200026e8262000243565b9050919050565b620002808162000262565b81146200028b575f80fd5b50565b5f815190506200029e8162000275565b92915050565b5f8060408385031215620002bd57620002bc6200023f565b5b5f620002cc858286016200028e565b9250506020620002df858286016200028e565b9150509250929050565b620002f48162000262565b82525050565b5f6020820190506200030f5f830184620002e9565b92915050565b5f82825260208201905092915050565b7f496e76616c6964206f70657261746f72000000000000000000000000000000005f82015250565b5f6200035b60108362000315565b9150620003688262000325565b602082019050919050565b5f6020820190508181035f8301526200038c816200034d565b9050919050565b61210780620003a15f395ff3fe608060405260043610610085575f3560e01c806377420b521161005857806377420b52146101195780638da5cb5b14610135578063b3ab15fb1461015f578063bf5522da14610187578063f2fde38b146101ca57610085565b80632d85314b14610089578063397addd5146100b1578063570ca735146100d9578063715018a614610103575b5f80fd5b348015610094575f80fd5b506100af60048036038101906100aa91906115cb565b6101f2565b005b3480156100bc575f80fd5b506100d760048036038101906100d2919061165e565b61069c565b005b3480156100e4575f80fd5b506100ed610c05565b6040516100fa91906116c7565b60405180910390f35b34801561010e575f80fd5b50610117610c2a565b005b610133600480360381019061012e91906116e0565b610c3d565b005b348015610140575f80fd5b50610149610fb5565b60405161015691906116c7565b60405180910390f35b34801561016a575f80fd5b506101856004803603810190610180919061174c565b610fdd565b005b348015610192575f80fd5b506101ad60048036038101906101a891906117aa565b611096565b6040516101c1989796959493929190611880565b60405180910390f35b3480156101d5575f80fd5b506101f060048036038101906101eb919061174c565b61116a565b005b6101fa6111ee565b5f61020486611232565b90505f73ffffffffffffffffffffffffffffffffffffffff168573ffffffffffffffffffffffffffffffffffffffff1603610274576040517f08c379a000000000000000000000000000000000000000000000000000000000815260040161026b90611956565b60405180910390fd5b5f84116102b6576040517f08c379a00000000000000000000000000000000000000000000000000000000081526004016102ad906119be565b60405180910390fd5b5f60025f8381526020019081526020015f20600101541461030c576040517f08c379a000000000000000000000000000000000000000000000000000000000815260040161030390611a26565b60405180910390fd5b6064828461031a9190611a71565b60ff161461035d576040517f08c379a000000000000000000000000000000000000000000000000000000000815260040161035490611aef565b60405180910390fd5b5f8573ffffffffffffffffffffffffffffffffffffffff166323b872dd3330886040518463ffffffff1660e01b815260040161039b93929190611b0d565b6020604051808303815f875af11580156103b7573d5f803e3d5ffd5b505050506040513d601f19601f820116820180604052508101906103db9190611b6c565b90508061041d576040517f08c379a000000000000000000000000000000000000000000000000000000000815260040161041490611be1565b60405180910390fd5b60405180610100016040528060018081111561043c5761043b6117d5565b5b81526020018773ffffffffffffffffffffffffffffffffffffffff1681526020018681526020013373ffffffffffffffffffffffffffffffffffffffff1681526020015f73ffffffffffffffffffffffffffffffffffffffff1681526020018560ff1681526020018460ff1681526020015f151581525060025f8481526020019081526020015f205f820151815f015f6101000a81548160ff021916908360018111156104ec576104eb6117d5565b5b02179055506020820151815f0160016101000a81548173ffffffffffffffffffffffffffffffffffffffff021916908373ffffffffffffffffffffffffffffffffffffffff160217905550604082015181600101556060820151816002015f6101000a81548173ffffffffffffffffffffffffffffffffffffffff021916908373ffffffffffffffffffffffffffffffffffffffff1602179055506080820151816003015f6101000a81548173ffffffffffffffffffffffffffffffffffffffff021916908373ffffffffffffffffffffffffffffffffffffffff16021790555060a08201518160030160146101000a81548160ff021916908360ff16021790555060c08201518160030160156101000a81548160ff021916908360ff16021790555060e08201518160030160166101000a81548160ff0219169083151502179055509050503373ffffffffffffffffffffffffffffffffffffffff167fc81bf52a069cdcd47a906dd2d92804b4f31cfdae83f21e6262988c40c9c6e8f88860018989898960405161068396959493929190611c69565b60405180910390a25050610695611261565b5050505050565b6106a461126a565b6106ac6111ee565b5f6106b683611232565b90505f60025f8381526020019081526020015f2090508060030160169054906101000a900460ff161561071e576040517f08c379a000000000000000000000000000000000000000000000000000000000815260040161071590611d19565b60405180910390fd5b5f816001015411610764576040517f08c379a000000000000000000000000000000000000000000000000000000000815260040161075b90611d81565b60405180910390fd5b5f73ffffffffffffffffffffffffffffffffffffffff168373ffffffffffffffffffffffffffffffffffffffff16036107d2576040517f08c379a00000000000000000000000000000000000000000000000000000000081526004016107c990611de9565b60405180910390fd5b5f60648260030160149054906101000a900460ff1660ff1683600101546107f99190611e07565b6108039190611e75565b90505f60648360030160159054906101000a900460ff1660ff16846001015461082c9190611e07565b6108369190611e75565b905084836003015f6101000a81548173ffffffffffffffffffffffffffffffffffffffff021916908373ffffffffffffffffffffffffffffffffffffffff16021790555060018360030160166101000a81548160ff0219169083151502179055505f60018111156108aa576108a96117d5565b5b835f015f9054906101000a900460ff1660018111156108cc576108cb6117d5565b5b03610a12575f8573ffffffffffffffffffffffffffffffffffffffff16836040516108f690611ed2565b5f6040518083038185875af1925050503d805f8114610930576040519150601f19603f3d011682016040523d82523d5f602084013e610935565b606091505b505090505f60035f9054906101000a900473ffffffffffffffffffffffffffffffffffffffff1673ffffffffffffffffffffffffffffffffffffffff168360405161097f90611ed2565b5f6040518083038185875af1925050503d805f81146109b9576040519150601f19603f3d011682016040523d82523d5f602084013e6109be565b606091505b505090508180156109cc5750805b610a0b576040517f08c379a0000000000000000000000000000000000000000000000000000000008152600401610a0290611f30565b60405180910390fd5b5050610ba3565b5f835f0160019054906101000a900473ffffffffffffffffffffffffffffffffffffffff1690505f8173ffffffffffffffffffffffffffffffffffffffff1663a9059cbb88866040518363ffffffff1660e01b8152600401610a75929190611f4e565b6020604051808303815f875af1158015610a91573d5f803e3d5ffd5b505050506040513d601f19601f82011682018060405250810190610ab59190611b6c565b90505f8273ffffffffffffffffffffffffffffffffffffffff1663a9059cbb60035f9054906101000a900473ffffffffffffffffffffffffffffffffffffffff16866040518363ffffffff1660e01b8152600401610b14929190611f4e565b6020604051808303815f875af1158015610b30573d5f803e3d5ffd5b505050506040513d601f19601f82011682018060405250810190610b549190611b6c565b9050818015610b605750805b610b9f576040517f08c379a0000000000000000000000000000000000000000000000000000000008152600401610b9690611be1565b60405180910390fd5b5050505b8473ffffffffffffffffffffffffffffffffffffffff167fc5e1cde08b7ee1dac117abef586301492018827f701ad030d8db36773474efab878484604051610bed93929190611f75565b60405180910390a250505050610c01611261565b5050565b60035f9054906101000a900473ffffffffffffffffffffffffffffffffffffffff1681565b610c3261126a565b610c3b5f6112f1565b565b610c456111ee565b5f610c4f84611232565b90505f3411610c93576040517f08c379a0000000000000000000000000000000000000000000000000000000008152600401610c8a90611ffb565b60405180910390fd5b5f60025f8381526020019081526020015f206001015414610ce9576040517f08c379a0000000000000000000000000000000000000000000000000000000008152600401610ce090611a26565b60405180910390fd5b60648284610cf79190611a71565b60ff1614610d3a576040517f08c379a0000000000000000000000000000000000000000000000000000000008152600401610d3190611aef565b60405180910390fd5b6040518061010001604052805f6001811115610d5957610d586117d5565b5b81526020015f73ffffffffffffffffffffffffffffffffffffffff1681526020013481526020013373ffffffffffffffffffffffffffffffffffffffff1681526020015f73ffffffffffffffffffffffffffffffffffffffff1681526020018460ff1681526020018360ff1681526020015f151581525060025f8381526020019081526020015f205f820151815f015f6101000a81548160ff02191690836001811115610e0957610e086117d5565b5b02179055506020820151815f0160016101000a81548173ffffffffffffffffffffffffffffffffffffffff021916908373ffffffffffffffffffffffffffffffffffffffff160217905550604082015181600101556060820151816002015f6101000a81548173ffffffffffffffffffffffffffffffffffffffff021916908373ffffffffffffffffffffffffffffffffffffffff1602179055506080820151816003015f6101000a81548173ffffffffffffffffffffffffffffffffffffffff021916908373ffffffffffffffffffffffffffffffffffffffff16021790555060a08201518160030160146101000a81548160ff021916908360ff16021790555060c08201518160030160156101000a81548160ff021916908360ff16021790555060e08201518160030160166101000a81548160ff0219169083151502179055509050503373ffffffffffffffffffffffffffffffffffffffff167fc81bf52a069cdcd47a906dd2d92804b4f31cfdae83f21e6262988c40c9c6e8f8855f80348888604051610f9f96959493929190611c69565b60405180910390a250610fb0611261565b505050565b5f60015f9054906101000a900473ffffffffffffffffffffffffffffffffffffffff16905090565b610fe561126a565b5f73ffffffffffffffffffffffffffffffffffffffff168173ffffffffffffffffffffffffffffffffffffffff1603611053576040517f08c379a000000000000000000000000000000000000000000000000000000000815260040161104a90612063565b60405180910390fd5b8060035f6101000a81548173ffffffffffffffffffffffffffffffffffffffff021916908373ffffffffffffffffffffffffffffffffffffffff16021790555050565b6002602052805f5260405f205f91509050805f015f9054906101000a900460ff1690805f0160019054906101000a900473ffffffffffffffffffffffffffffffffffffffff1690806001015490806002015f9054906101000a900473ffffffffffffffffffffffffffffffffffffffff1690806003015f9054906101000a900473ffffffffffffffffffffffffffffffffffffffff16908060030160149054906101000a900460ff16908060030160159054906101000a900460ff16908060030160169054906101000a900460ff16905088565b61117261126a565b5f73ffffffffffffffffffffffffffffffffffffffff168173ffffffffffffffffffffffffffffffffffffffff16036111e2575f6040517f1e4fbdf70000000000000000000000000000000000000000000000000000000081526004016111d991906116c7565b60405180910390fd5b6111eb816112f1565b50565b60025f5403611229576040517f3ee5aeb500000000000000000000000000000000000000000000000000000000815260040160405180910390fd5b60025f81905550565b5f8160405160200161124491906120bb565b604051602081830303815290604052805190602001209050919050565b60015f81905550565b6112726113b4565b73ffffffffffffffffffffffffffffffffffffffff16611290610fb5565b73ffffffffffffffffffffffffffffffffffffffff16146112ef576112b36113b4565b6040517f118cdaa70000000000000000000000000000000000000000000000000000000081526004016112e691906116c7565b60405180910390fd5b565b5f60015f9054906101000a900473ffffffffffffffffffffffffffffffffffffffff1690508160015f6101000a81548173ffffffffffffffffffffffffffffffffffffffff021916908373ffffffffffffffffffffffffffffffffffffffff1602179055508173ffffffffffffffffffffffffffffffffffffffff168173ffffffffffffffffffffffffffffffffffffffff167f8be0079c531659141344cd1fd0a4f28419497f9722a3daafe3b4186f6b6457e060405160405180910390a35050565b5f33905090565b5f604051905090565b5f80fd5b5f80fd5b5f80fd5b5f80fd5b5f601f19601f8301169050919050565b7f4e487b71000000000000000000000000000000000000000000000000000000005f52604160045260245ffd5b61141a826113d4565b810181811067ffffffffffffffff82111715611439576114386113e4565b5b80604052505050565b5f61144b6113bb565b90506114578282611411565b919050565b5f67ffffffffffffffff821115611476576114756113e4565b5b61147f826113d4565b9050602081019050919050565b828183375f83830152505050565b5f6114ac6114a78461145c565b611442565b9050828152602081018484840111156114c8576114c76113d0565b5b6114d384828561148c565b509392505050565b5f82601f8301126114ef576114ee6113cc565b5b81356114ff84826020860161149a565b91505092915050565b5f73ffffffffffffffffffffffffffffffffffffffff82169050919050565b5f61153182611508565b9050919050565b61154181611527565b811461154b575f80fd5b50565b5f8135905061155c81611538565b92915050565b5f819050919050565b61157481611562565b811461157e575f80fd5b50565b5f8135905061158f8161156b565b92915050565b5f60ff82169050919050565b6115aa81611595565b81146115b4575f80fd5b50565b5f813590506115c5816115a1565b92915050565b5f805f805f60a086880312156115e4576115e36113c4565b5b5f86013567ffffffffffffffff811115611601576116006113c8565b5b61160d888289016114db565b955050602061161e8882890161154e565b945050604061162f88828901611581565b9350506060611640888289016115b7565b9250506080611651888289016115b7565b9150509295509295909350565b5f8060408385031215611674576116736113c4565b5b5f83013567ffffffffffffffff811115611691576116906113c8565b5b61169d858286016114db565b92505060206116ae8582860161154e565b9150509250929050565b6116c181611527565b82525050565b5f6020820190506116da5f8301846116b8565b92915050565b5f805f606084860312156116f7576116f66113c4565b5b5f84013567ffffffffffffffff811115611714576117136113c8565b5b611720868287016114db565b9350506020611731868287016115b7565b9250506040611742868287016115b7565b9150509250925092565b5f60208284031215611761576117606113c4565b5b5f61176e8482850161154e565b91505092915050565b5f819050919050565b61178981611777565b8114611793575f80fd5b50565b5f813590506117a481611780565b92915050565b5f602082840312156117bf576117be6113c4565b5b5f6117cc84828501611796565b91505092915050565b7f4e487b71000000000000000000000000000000000000000000000000000000005f52602160045260245ffd5b60028110611813576118126117d5565b5b50565b5f81905061182382611802565b919050565b5f61183282611816565b9050919050565b61184281611828565b82525050565b61185181611562565b82525050565b61186081611595565b82525050565b5f8115159050919050565b61187a81611866565b82525050565b5f610100820190506118945f83018b611839565b6118a1602083018a6116b8565b6118ae6040830189611848565b6118bb60608301886116b8565b6118c860808301876116b8565b6118d560a0830186611857565b6118e260c0830185611857565b6118ef60e0830184611871565b9998505050505050505050565b5f82825260208201905092915050565b7f496e76616c696420746f6b656e000000000000000000000000000000000000005f82015250565b5f611940600d836118fc565b915061194b8261190c565b602082019050919050565b5f6020820190508181035f83015261196d81611934565b9050919050565b7f496e76616c696420616d6f756e740000000000000000000000000000000000005f82015250565b5f6119a8600e836118fc565b91506119b382611974565b602082019050919050565b5f6020820190508181035f8301526119d58161199c565b9050919050565b7f416c7265616479206465706f73697465640000000000000000000000000000005f82015250565b5f611a106011836118fc565b9150611a1b826119dc565b602082019050919050565b5f6020820190508181035f830152611a3d81611a04565b9050919050565b7f4e487b71000000000000000000000000000000000000000000000000000000005f52601160045260245ffd5b5f611a7b82611595565b9150611a8683611595565b9250828201905060ff811115611a9f57611a9e611a44565b5b92915050565b7f496e76616c696420726174696f000000000000000000000000000000000000005f82015250565b5f611ad9600d836118fc565b9150611ae482611aa5565b602082019050919050565b5f6020820190508181035f830152611b0681611acd565b9050919050565b5f606082019050611b205f8301866116b8565b611b2d60208301856116b8565b611b3a6040830184611848565b949350505050565b611b4b81611866565b8114611b55575f80fd5b50565b5f81519050611b6681611b42565b92915050565b5f60208284031215611b8157611b806113c4565b5b5f611b8e84828501611b58565b91505092915050565b7f546f6b656e207472616e73666572206661696c656400000000000000000000005f82015250565b5f611bcb6015836118fc565b9150611bd682611b97565b602082019050919050565b5f6020820190508181035f830152611bf881611bbf565b9050919050565b5f81519050919050565b5f5b83811015611c26578082015181840152602081019050611c0b565b5f8484015250505050565b5f611c3b82611bff565b611c4581856118fc565b9350611c55818560208601611c09565b611c5e816113d4565b840191505092915050565b5f60c0820190508181035f830152611c818189611c31565b9050611c906020830188611839565b611c9d60408301876116b8565b611caa6060830186611848565b611cb76080830185611857565b611cc460a0830184611857565b979650505050505050565b7f416c7265616479206469737472696275746564000000000000000000000000005f82015250565b5f611d036013836118fc565b9150611d0e82611ccf565b602082019050919050565b5f6020820190508181035f830152611d3081611cf7565b9050919050565b7f4e6f20626f756e747900000000000000000000000000000000000000000000005f82015250565b5f611d6b6009836118fc565b9150611d7682611d37565b602082019050919050565b5f6020820190508181035f830152611d9881611d5f565b9050919050565b7f496e76616c696420736f6c7665720000000000000000000000000000000000005f82015250565b5f611dd3600e836118fc565b9150611dde82611d9f565b602082019050919050565b5f6020820190508181035f830152611e0081611dc7565b9050919050565b5f611e1182611562565b9150611e1c83611562565b9250828202611e2a81611562565b91508282048414831517611e4157611e40611a44565b5b5092915050565b7f4e487b71000000000000000000000000000000000000000000000000000000005f52601260045260245ffd5b5f611e7f82611562565b9150611e8a83611562565b925082611e9a57611e99611e48565b5b828204905092915050565b5f81905092915050565b50565b5f611ebd5f83611ea5565b9150611ec882611eaf565b5f82019050919050565b5f611edc82611eb2565b9150819050919050565b7f455448207472616e73666572206661696c6564000000000000000000000000005f82015250565b5f611f1a6013836118fc565b9150611f2582611ee6565b602082019050919050565b5f6020820190508181035f830152611f4781611f0e565b9050919050565b5f604082019050611f615f8301856116b8565b611f6e6020830184611848565b9392505050565b5f6060820190508181035f830152611f8d8186611c31565b9050611f9c6020830185611848565b611fa96040830184611848565b949350505050565b7f4e6f204554482073656e740000000000000000000000000000000000000000005f82015250565b5f611fe5600b836118fc565b9150611ff082611fb1565b602082019050919050565b5f6020820190508181035f83015261201281611fd9565b9050919050565b7f496e76616c6964206f70657261746f72000000000000000000000000000000005f82015250565b5f61204d6010836118fc565b915061205882612019565b602082019050919050565b5f6020820190508181035f83015261207a81612041565b9050919050565b5f81905092915050565b5f61209582611bff565b61209f8185612081565b93506120af818560208601611c09565b80840191505092915050565b5f6120c6828461208b565b91508190509291505056fea2646970667358221220d8270dc55d806edc424748e4ceef924da7b7f7b336179e5a6e500c9ed6716de864736f6c63430008180033",
    "linkReferences": {}
  },
  "methodIdentifiers": {
    "bounties(bytes32)": "bf5522da",
    "depositETH(string,uint8,uint8)": "77420b52",
    "depositToken(string,address,uint256,uint8,uint8)": "2d85314b",
    "distribute(string,address)": "397addd5",
    "operator()": "570ca735",
    "owner()": "8da5cb5b",
    "renounceOwnership()": "715018a6",
    "setOperator(address)": "b3ab15fb",
    "transferOwnership(address)": "f2fde38b"
  },
  "id": 28
}